:10016600144900000000000000000000000000002C
:100176000000000000001435000000000000000030
:100186000000000000000000000000000A2BC0CFA5
:10019600A4B0999282F88090052634431010010588
:0601A6002134431010019A
:1002EE00E4FDFCC3ED9FEC9E50070DBD00010C809C
:1002FE00F2E4FCFDC3ED9FEC9E50070DBD00010C1A
:02030E0080F27B
:0103100022CA
:0B035800EFD394004004001F80F62249
:1001AD007F64120358C291D2B2C2927B007A007959
:1001BD00267518057F301202327A00792112022B32
:1001CD007D017F2112032A7D017F2212032AE4FD86
:1001DD007F2512032A7D147F3112032A7D077F2686
:0301ED0002032AE0
:10031100E4FEEF339294EF25E0FFD292A293E4330F
:080321004207C2920EBE08EA79
:0103290022B1
:0C034B00C2B2120311E4FF120311D2B27F
:010357002283
:10032A00C2B2120311AC07AF05120311D2B2AF0465
:01033A0022A0
:060264008B158A168917B4
:10026A00C2B2120311AD07E4FCECC395185017E4AF
:10027A00FF120311AB15AA16A9178C82758300EF1A
:0A028A001202090C80E3D2B2AF05A6
:010294002247
:07022B007B007518057F2A16
:060232008B158A168917E6
:10023800C2B2120311AD07E4FCECC395185018AB19
:10024800150517E517AA167002051614F91201F01C
:0B025800FF1203110C80E2D2B2AF05D0
:010263002278
:10033B00C2917D0F7F2012032AD2917F8202035834
:060295008B118A1289138F
:10029B00E4FB7F0712034B8F20300612C291AB1188
:1002AB00AA12A9137518147F611202647B01AD2089
:0702BB007F2712032AAF03A5
:0102C2002219
:1002C3008B118A128913C2917A00792612022BAB01
:1002D30011AA12A9137518147FA01202327D0E7F82
:0B02E3002012032AD2917F0A02035868
:10000300E4F50EF50CF50DF50AF50BF508F50912F7
:1000130001ADC2A3C2A2C2A1C2A0852D80E50EB4C8
:1000230001157B007A0079491202C3E4F54AF50E03
:100033007FE87E031202EE12033B7B007A007935E0
:10004300120295E53670030200D4750C00750D019C
:10005300C394404010E536D3946F500974CE2536CF
:10006300F876618043E536C394704010E536D39447
:100073009F5009749E2536F87662802CE536C3942A
:10008300A04010E536D394CF5009746E2536F87628
:10009300638015E536C394D0400EE536D394FF5004
:1000A30007743E2536F87664E4FFFE740F2FF8E6F6
:1000B3007004F50CF50D0FBF00010EEF64024E70D6
:1000C300EAE50D450C60037580BF7FE87E031202ED
:0700D300EEE4F53602002007
:030000000200DA21
:0C00DA00787FE4F6D8FD75815C020121FE
:1001F000BB010689828A83E0225002E722BBFE020D
:09020000E32289828A83E493223F
:10020900F8BB010DE58229F582E5833AF583E8F02B
:10021900225006E92582C8F622BBFE05E92582C8D7
:02022900F222BF
:1000E600020003E493A3F8E493A34003F68001F22D
:1000F60008DFF48029E493A3F85407240CC8C3331B
:10010600C4540F4420C8834004F456800146F6DFE9
:10011600E4800B0102040810204080900166E47E12
:10012600019360BCA3FF543F30E509541FFEE493DE
:10013600A360010ECF54C025E060A840B8E493A3A5
:10014600FAE493A3F8E493A3C8C582C8CAC583CAD0
:10015600F0A3C8C582C8CAC583CADFE9DEE780BE88
:0101AC000052
:00000001FF
