:100142001449000000000000000000000000000050
:100152000000000000001435000000000000000054
:100162000000000000000000000000000A2BC0CFC9
:10017200A4B0999282F880900526344310100105AC
:06018200213443101001BE
:1002CA00E4FDFCC3ED9FEC9E50070DBD00010C80C0
:1002DA00F2E4FCFDC3ED9FEC9E50070DBD00010C3E
:0202EA0080F2A0
:0102EC0022EF
:0B033400EFD394004004001F80F6226D
:100189007F64120334C291D2B2C2927B007A0079A1
:10019900267514057F3012020E7A007921120207A2
:1001A9007D017F211203067D017F22120306E4FDF2
:1001B9007F251203067D147F311203067D077F26F2
:0301C90002030628
:1002ED00E4FEEF339294EF25E0FFD292A293E43334
:0802FD004207C2920EBE08EA9E
:0103050022D5
:0C032700C2B21202EDE4FF1202EDD2B2ED
:0103330022A7
:10030600C2B21202EDAC07AF051202EDD2B2AF04D3
:0103160022C4
:060240008B118A128913E4
:10024600C2B21202EDAD07E4FCECC395145017E4FC
:10025600FF1202EDAB11AA12A9138C82758300EF6F
:0A0266001201E50C80E3D2B2AF05EF
:01027000226B
:070207007B007514057F2A3E
:06020E008B118A12891316
:10021400C2B21202EDAD07E4FCECC395145018AB66
:10022400110513E513AA127002051214F91201CC78
:0B023400FF1202ED0C80E2D2B2AF0519
:01023F00229C
:10031700C2917D0F7F20120306D2917F82020334A0
:060271008B0D8A0E890FBF
:10027700E4FB7F071203278F20300612C291AB0DD4
:10028700AA0EA90F7514147F611202407B01AD20DD
:070297007F27120306AF03ED
:01029E00223D
:10029F008B0D8A0E890FC2917A007926120207AB55
:1002AF000DAA0EA90F7514147FA012020E7D0E7FDA
:0B02BF0020120306D2917F0A020334D4
:10000300E4F50CF50AF50BF508F509120189C2A30D
:10001300C2A2C2A1C2A0E4F580754A01754B01FBDF
:100023007A00794912029F7F707E171202CA758087
:10003300BFE50B450A602E20B614754A02754B01C5
:10004300754C01750C01E4F50AF50B7580BF20B7FB
:1000530014754A02754B01754C02750C01E4F50ADF
:10006300F50B7580BFE50CB401197B007A00794963
:1000730012029FE4F54AF54BF54CF50C7FE87E033D
:100083001202CA1203177B007A007935120271E556
:10009300366016B4020CE5377008F50A750B018556
:1000A3002D807FE87E031202CAE4F536F537F53872
:0300B30002003414
:030000000200B645
:0C00B600787FE4F6D8FD75815C0200FD47
:1001CC00BB010689828A83E0225002E722BBFE0231
:0901DC00E32289828A83E4932264
:1001E500F8BB010DE58229F582E5833AF583E8F050
:1001F500225006E92582C8F622BBFE05E92582C8FC
:02020500F222E3
:1000C200020003E493A3F8E493A34003F68001F251
:1000D20008DFF48029E493A3F85407240CC8C3333F
:1000E200C4540F4420C8834004F456800146F6DF0E
:1000F200E4800B0102040810204080900142E47E5B
:10010200019360BCA3FF543F30E509541FFEE49302
:10011200A360010ECF54C025E060A840B8E493A3C9
:10012200FAE493A3F8E493A3C8C582C8CAC583CAF4
:10013200F0A3C8C582C8CAC583CADFE9DEE780BEAC
:010188000076
:00000001FF
