:10013500144900000000000000000000000000005D
:100145000000000000001435000000000000000061
:100155000000000000000000000000000A2BC0CFD6
:10016500A4B0999282F880900526344310100105B9
:06017500213443101001CB
:1002BD00E4FDFCC3ED9FEC9E50070DBD00010C80CD
:1002CD00F2E4FCFDC3ED9FEC9E50070DBD00010C4B
:0202DD0080F2AD
:0102DF0022FC
:0B032700EFD394004004001F80F6227A
:10017C007F64120327C291D2B2C2927B007A0079BB
:10018C00267514057F301202017A0079211201FACA
:10019C007D017F211202F97D017F221202F9E4FD1B
:1001AC007F251202F97D147F311202F97D077F261B
:0301BC000202F943
:1002E000E4FEEF339294EF25E0FFD292A293E43341
:0802F0004207C2920EBE08EAAB
:0102F80022E3
:0C031A00C2B21202E0E4FF1202E0D2B214
:0103260022B4
:1002F900C2B21202E0AC07AF051202E0D2B2AF04FB
:0103090022D1
:060233008B118A128913F1
:10023900C2B21202E0AD07E4FCECC395145017E416
:10024900FF1202E0AB11AA12A9138C82758300EF89
:0A0259001201D80C80E3D2B2AF0509
:010263002278
:0701FA007B007514057F2A4C
:060201008B118A12891323
:10020700C2B21202E0AD07E4FCECC395145018AB80
:10021700110513E513AA127002051214F91201BF92
:0B022700FF1202E00C80E2D2B2AF0533
:0102320022A9
:10030A00C2917D0F7F201202F9D2917F82020327C8
:060264008B0D8A0E890FCC
:10026A00E4FB7F0712031A8F20300612C291AB0DEE
:10027A00AA0EA90F7514147F611202337B01AD20F7
:07028A007F271202F9AF0308
:01029100224A
:100292008B0D8A0E890FC2917A0079261201FAAB70
:1002A2000DAA0EA90F7514147FA01202017D0E7FF4
:0B02B200201202F9D2917F0A020327FC
:10000300E4F50CF50AF50BF508F50912017CC2A31A
:10001300C2A2C2A1C2A07580BF20B60F754A1175D6
:100023000800750901852C80750C01E50B450A60F4
:100033001820B709754A41750C017580BF20B509B1
:10004300754A71750C017580BFE50CB401157B0011
:100053007A007949120292E4F54AF50C7FE87E03AF
:100063001202BD12030A7B007A007935120264E59D
:1000730036602DB40208E4F508F5097580BFE5364E
:10008300B40309750A00750B01852D80E536B404A8
:1000930008E4F50AF50B7580BF7FE87E031202BD05
:0600A300E4F53602001C2A
:030000000200A952
:0C00A900787FE4F6D8FD75815C0200F061
:1001BF00BB010689828A83E0225002E722BBFE023E
:0901CF00E32289828A83E4932271
:1001D800F8BB010DE58229F582E5833AF583E8F05D
:1001E800225006E92582C8F622BBFE05E92582C809
:0201F800F222F1
:1000B500020003E493A3F8E493A34003F68001F25E
:1000C50008DFF48029E493A3F85407240CC8C3334C
:1000D500C4540F4420C8834004F456800146F6DF1B
:1000E500E4800B0102040810204080900135E47E75
:1000F500019360BCA3FF543F30E509541FFEE49310
:10010500A360010ECF54C025E060A840B8E493A3D6
:10011500FAE493A3F8E493A3C8C582C8CAC583CA01
:10012500F0A3C8C582C8CAC583CADFE9DEE780BEB9
:01017B000083
:00000001FF
