:10012C001449000000000000000000000000000066
:10013C00000000000000143500000000000000006A
:10014C000000000000000000000000000A2BC0CFDF
:10015C00A4B0999282F880900526344310100105C2
:06016C00213443101001D4
:1002B400E4FDFCC3ED9FEC9E50070DBD00010C80D6
:1002C400F2E4FCFDC3ED9FEC9E50070DBD00010C54
:0202D40080F2B6
:0102D6002205
:0B031E00EFD394004004001F80F62283
:100173007F6412031EC291D2B2C2927B007A0079CD
:10018300267514057F301201F87A0079211201F1E6
:100193007D017F211202F07D017F221202F0E4FD36
:1001A3007F251202F07D147F311202F07D077F2636
:0301B3000202F055
:1002D700E4FEEF339294EF25E0FFD292A293E4334A
:0802E7004207C2920EBE08EAB4
:0102EF0022EC
:0C031100C2B21202D7E4FF1202D7D2B22F
:01031D0022BD
:1002F000C2B21202D7AC07AF051202D7D2B2AF0416
:0103000022DA
:06022A008B118A128913FA
:10023000C2B21202D7AD07E4FCECC395145017E428
:10024000FF1202D7AB11AA12A9138C82758300EF9B
:0A0250001201CF0C80E3D2B2AF051B
:01025A002281
:0701F1007B007514057F2A55
:0601F8008B118A1289132D
:1001FE00C2B21202D7AD07E4FCECC395145018AB93
:10020E00110513E513AA127002051214F91201B6A4
:0B021E00FF1202D70C80E2D2B2AF0545
:0102290022B2
:10030100C2917D0F7F201202F0D2917F8202031EE3
:06025B008B0D8A0E890FD5
:10026100E4FB7F071203118F20300612C291AB0D00
:10027100AA0EA90F7514147F6112022A7B01AD2009
:070281007F271202F0AF031A
:010288002253
:100289008B0D8A0E890FC2917A0079261201F1AB82
:100299000DAA0EA90F7514147FA01201F87D0E7F07
:0B02A900201202F0D2917F0A02031E17
:10000300E4F50CF50AF50BF508F509120173C2A323
:10001300C2A2C2A1C2A07580BF20B60F754A1075D7
:100023000800750901852C80750C0120B70E754AEF
:1000330040750C01E4F50AF50B7580BF20B50E750C
:100043004A70750C01E4F50AF50B7580BFE50CB435
:1000530001157B007A007949120289E4F54AF50C0F
:100063007FE87E031202B41203017B007A00793524
:1000730012025BE5366020B40208E4F508F5097561
:1000830080BFE536B40309750A00750B01852D8021
:0D0093007FE87E031202B4E4F53602001C83
:030000000200A05B
:0C00A000787FE4F6D8FD75815C0200E773
:1001B600BB010689828A83E0225002E722BBFE0247
:0901C600E32289828A83E493227A
:1001CF00F8BB010DE58229F582E5833AF583E8F066
:1001DF00225006E92582C8F622BBFE05E92582C812
:0201EF00F222FA
:1000AC00020003E493A3F8E493A34003F68001F267
:1000BC0008DFF48029E493A3F85407240CC8C33355
:1000CC00C4540F4420C8834004F456800146F6DF24
:1000DC00E4800B010204081020408090012CE47E87
:1000EC00019360BCA3FF543F30E509541FFEE49319
:1000FC00A360010ECF54C025E060A840B8E493A3E0
:10010C00FAE493A3F8E493A3C8C582C8CAC583CA0A
:10011C00F0A3C8C582C8CAC583CADFE9DEE780BEC2
:01017200008C
:00000001FF
