:1004500041736B20537461727453747564656E7468
:10046000204E6F2E58582041736B41736B204669A4
:100470006E6973685175697A20537461727451752D
:09048000697A2046696E6973680F
:1003890094280000000000000000000000000000A8
:1003990000000000000094140000000000000000AC
:1003A9000000000000000000000000008A0AC0CF21
:1003B900A4B0999282F88090850534431010018584
:0603C90000344310100196
:10058100E4FDFCC3ED9FEC9E50070DBD00010C8006
:10059100F2E4FCFDC3ED9FEC9E50070DBD00010C84
:0205A10080F2E6
:0105A3002235
:0B060800EFD394004004001F80F62296
:1003D0007F64120608C291D2B2C2927BFE7A007983
:1003E0000578867405F27F3012041E7A00790012B7
:1003F00004157D017F211205C27D017F221205C2F5
:10040000E4FD7F251205C27D147F311205C27D07F0
:050410007F260205C279
:0A055D00EBF208EAF208E9F2C2B27C
:10056700E4FEEF339294EF25E0FFD292A293E433B7
:090577004FFFC2920EEEB408E938
:010580002258
:0C05E300C2B2120567E4FF120567D2B235
:0105EF0022E9
:1005C200C2B2120567AC07AF05120567D2B2AF041B
:0105D2002206
:02052B007883D3
:10052D0012055DAD07E4FC7886E2FFECC39F501B1E
:10053D00E4FF1205677883E2FB08E2FA08E2F98C22
:0F054D0082758300EF1202DB0C80DCD2B2AF05A7
:01055C00227C
:090415007BFE78867405F27F2A53
:02041E007883E1
:1004200012055DAD07E4FC7886E2FFECC39F501B2C
:100430007883E2FB0808E2F92401F218E2FA3400BA
:0F044000F21202C2FF1205670C80DCD2B2AF05C8
:01044F00228A
:1005D300C2917D0F7F201205C2D2917F820206084D
:0A048900787FEBF208EAF208E9F2CE
:10049300E4FB7F071205E38F20300618C291787FB3
:1004A300E2FB08E2FA08E2F978867414F27F61123B
:0D04B300052B7B01AD207F271205C2AF0392
:0104C0002219
:1004C100787FEBF208EAF208E9F2C2917A00790545
:1004D100120415787FE2FB08E2FA08E2F9788674E3
:1004E10014F27FA012041E7D0E7F201205C2D2914C
:0504F1007F0A0206086D
:1004F600C2A58C807F01120519D2A77F05120519A6
:10050600C2A7AF04EFC454F0F5807F01120519D2DB
:03051600A77F05B7
:10051900EFD39400400B7EC77D01DDFEDEFA1F801C
:01052900EFE2
:01052A0022AE
:0C05F000AC07C2A7C2A61204F6C2A722E4
:0C05FC00AC07C2A7D2A61204F6C2A722C8
:1005A4007F321205F07F281205F07F0C1205F07FD0
:0E05B400061205F07F011205F07F800205F0AF
:10000300E47844F278467C007DFE7BFF7A047950E5
:10001300FE7F0912029C784F7C007DFE7BFF7A04F1
:1000230079597E007F1112029C78607C007DFE7BF3
:10003300FF7A04796A7E007F0A12029C786A7C0048
:100043007DFE7BFF7A0479747E007F0A12029C781E
:10005300747C007DFE7BFF7A04797E7E007F0B1229
:10006300029CE47840F208F2783EF208F2783CF21F
:1000730008F21203D0C2A3C2A2C2A1C2A07580BF5C
:1000830020B61B783DE2700218E26012E4783CF27D
:1000930008F27580BF78297402F2784414F220B70D
:1000A30051783FE2700218E27048783DE27002181E
:1000B300E2703F783EF20804F2E47842F208F27804
:1000C30042E2FE08E2FFC39401EE64809480501381
:1000D30074452FF8E4F27843E22401F218E2340085
:1000E300F280DC780CE2F58078297403F2784474AA
:1000F30001F27844E2B401177BFE7A0079281204F6
:10010300C1E47829F27844F27FE87E031205811274
:1001130005D37BFE7A0079141204897815E2FF7007
:10012300030201C5C394104014EFD3943F500E78DB
:100133003CE4F20804F274FB2FF8E2F580783FE226
:10014300700218E260757840E4F20804F27815E270
:10015300FFC39440400DEFD3946F500774052FF8FD
:100163007461F27815E2FFC39470400DEFD3949F4E
:10017300500774D52FF87462F2E47842F208F278EB
:1001830042E2FE08E2FFC39401EE648094805019BA
:1001930074452FF8E270057840F208F27843E224C0
:1001A30001F218E23400F280D67841E2700218E2DC
:1001B3006009E4783EF208F27580BF7FE87E03129F
:0901C3000581E47815F2020083C5
:030000000202FDFC
:0C02FD00787FE4F6D8FD758120020344F0
:1001CC00E709F608DFFA8046E709F208DFFA803E15
:1001DC0088828C83E709F0A3DFFA8032E309F60802
:1001EC00DFFA8078E309F208DFFA807088828C836A
:1001FC00E309F0A3DFFA806489828A83E0A3F6081E
:10020C00DFFA805889828A83E0A3F208DFFA804CF7
:10021C0080D280FA80C680D4806980F280338010CE
:10022C0080A680EA809A80A880DA80E280CA803337
:10023C0089828A83ECFAE493A3C8C582C8CCC583AF
:10024C00CCF0A3C8C582C8CCC583CCDFE9DEE7807F
:10025C000D89828A83E493A3F608DFF9ECFAA9F0FE
:10026C00EDFB2289828A83ECFAE0A3C8C582C8CC54
:10027C00C583CCF0A3C8C582C8CCC583CCDFEADE6D
:10028C00E880DB89828A83E493A3F208DFF980CCCF
:10029C0088F0EF60010E4E60C388F0ED2402B404C8
:1002AC000050B9F582EB2402B4040050AF2323456F
:0602BC00822390021C7376
:1002C200BB010689828A83E0225002E722BBFE023A
:0902D200E32289828A83E493226D
:1002DB00F8BB010DE58229F582E5833AF583E8F059
:1002EB00225006E92582C8F622BBFE05E92582C805
:0202FB00F222ED
:10030900020003E493A3F8E493A34003F68001F207
:1003190008DFF48029E493A3F85407240CC8C333F5
:10032900C4540F4420C8834004F456800146F6DFC4
:10033900E4800B0102040810204080900389E47EC8
:10034900019360BCA3FF543F30E509541FFEE493B9
:10035900A360010ECF54C025E060A840B8E493A380
:10036900FAE493A3F8E493A3C8C582C8CAC583CAAB
:10037900F0A3C8C582C8CAC583CADFE9DEE780BE63
:0103CF00002D
:00000001FF
