:1005AF0041736B20537461727453747564656E7408
:1005BF00204E6F2E58582041736B41736B20466944
:1005CF006E6973685175697A2053746172745175CD
:0905DF00697A2046696E697368AF
:1004E8009428000000000000000000000000000048
:1004F800000000000000941400000000000000004C
:100508000000000000000000000000008A0AC0CFC0
:10051800A4B0999282F88090850534431010018523
:0605280000344310100135
:1006E000E4FDFCC3ED9FEC9E50070DBD00010C80A6
:1006F000F2E4FCFDC3ED9FEC9E50070DBD00010C24
:0207000080F285
:0107020022D4
:0B076D00EFD394004004001F80F62230
:10052F007F6412076DC291D2B2C2927BFE7A0079BC
:10053F000578867405F27F3012057D7A00790012F6
:10054F0005747D017F211207327D017F2212073250
:10055F00E4FD7F251207327D147F311207327D07AC
:05056F007F26020732A7
:0A06BC00EBF208EAF208E9F2C2B21C
:1006C600E4FEEF339294EF25E0FFD292A293E43357
:0906D6004FFFC2920EEEB408E9D8
:0106DF0022F8
:0C075300C2B21206C6E4FF1206C6D2B203
:01075F002277
:10073200C2B21206C6AC07AF051206C6D2B2AF04E9
:010742002294
:02068A00788373
:10068C001206BCAD07E4FC7886E2FFECC39F501B5E
:10069C00E4FF1206C67883E2FB08E2FA08E2F98C62
:0F06AC0082758300EF1203E50C80DCD2B2AF053C
:0106BB00221C
:090574007BFE78867405F27F2AF3
:02057D00788381
:10057F001206BCAD07E4FC7886E2FFECC39F501B6C
:10058F007883E2FB0808E2F92401F218E2FA34005A
:0F059F00F21203CCFF1206C60C80DCD2B2AF05FD
:0105AE00222A
:10074300C2917D0F7F20120732D2917F8202076D03
:0A05E800787FEBF208EAF208E9F26E
:1005F200E4FB7F071207538F20300618C291787FE1
:10060200E2FB08E2FA08E2F978867414F27F6112DA
:0D061200068A7B01AD207F27120732AF035F
:01061F0022B8
:10062000787FEBF208EAF208E9F2C2917A007905E4
:10063000120574787FE2FB08E2FA08E2F978867422
:1006400014F27FA012057D7D0E7F20120732D29119
:050650007F0A02076DA6
:10065500C2A58C807F01120678D2A77F0512067885
:10066500C2A7AF04EFC454F0F5807F01120678D21B
:03067500A77F0557
:10067800EFD39400400B7EC77D01DDFEDEFA1F80BC
:01068800EF82
:01068900224E
:100703007F321207147F281207147F0C1207147FFD
:0107130006DF
:0C071400AC07C2A7C2A6120655C2A7225D
:0607200074602FF8E2FFF7
:0C072600AC07C2A7D2A6120655C2A7223B
:0D0760001207037F011207147F80020714A7
:10000300E47844F278467C007DFE7BFF7A0579AF85
:10001300FE7F091203A6784F7C007DFE7BFF7A05E5
:1000230079B87E007F111203A678607C007DFE7B89
:10003300FF7A0579C97E007F0A1203A6786A7C00DD
:100043007DFE7BFF7A0579D37E007F0A1203A678B3
:10005300747C007DFE7BFF7A0579DD7E007F0B12C9
:1000630003A6E47840F208F2783EF208F2783CF214
:1000730008F212052F12070320B677783DE27002CB
:1000830018E2606EE4783CF208F27F011207147FF5
:1000930080120714E47842F208F27842E2FE08E2A2
:1000A300FFC39404EE6480948050101207207843B9
:1000B300E22401F218E23400F280DF7FC012071459
:1000C3007842E4F2087404F27842E2FE08E2FFC3E5
:1000D300940AEE6480948050101207207843E2243F
:1000E30001F218E23400F280DF78297402F27844D6
:1000F30014F230B70302017A783FE2700218E2701B
:1001030076783DE2700218E2706D783EF20804F2F0
:10011300E47842F208F27842E2FE08E2FFC3940177
:10012300EE64809480501374452FF8E4F27843E230
:100133002401F218E23400F280DC7F011207147FFD
:1001430080120714E47842F208F27842E2FE08E2F1
:10015300FFC3940AEE648094805012746A120722DB
:100163007843E22401F218E23400F280DD78297446
:1001730003F278447401F27844E2B401177BFE7A07
:10018300007928120620E47829F27844F27FE87E89
:10019300031206E01207437BFE7A0079141205E886
:1001A3007815E2FF70030202CFC3941050030202DA
:1001B30050EFD3943F4003020250783CE4F208042A
:1001C300F2EF24F1FBE434FFFA7C007D0AAF03FE77
:1001D300120407EF2430785AF27C007D0AAF03AE95
:1001E30002120407ED2430785BF27F011207147FBB
:1001F300801207147842E4F208740EF27842E2FEA9
:1002030008E2FFC39411EE648094805012744F127D
:1002130007227843E22401F218E23400F280DD7F02
:10022300C0120714E47842F208F27842E2FE08E2D0
:10023300FFC3940EEE648094805012744F12072211
:100243007843E22401F218E23400F280DD783FE2E1
:10025300700218E2606F7840E4F20804F27815E265
:10026300FFC39440400DEFD3946F500774052FF8EC
:100273007461F2EFC39470400DEFD3949F500774F1
:10028300D52FF87462F2E47842F208F27842E2FE83
:1002930008E2FFC39401EE64809480501974452FE3
:1002A300F8E270057840F208F27843E22401F2188C
:1002B300E23400F280D67841E2700218E26006E48C
:1002C300783EF208F27FE87E031206E0E47815F246
:0302D30002007BAB
:0300000002045C9B
:0C045C00787FE4F6D8FD7581200204A32F
:1002D600E709F608DFFA8046E709F208DFFA803E0A
:1002E60088828C83E709F0A3DFFA8032E309F608F7
:1002F600DFFA8078E309F208DFFA807088828C835F
:10030600E309F0A3DFFA806489828A83E0A3F60812
:10031600DFFA805889828A83E0A3F208DFFA804CEC
:1003260080D280FA80C680D4806980F280338010C3
:1003360080A680EA809A80A880DA80E280CA80332C
:1003460089828A83ECFAE493A3C8C582C8CCC583A4
:10035600CCF0A3C8C582C8CCC583CCDFE9DEE78074
:100366000D89828A83E493A3F608DFF9ECFAA9F0F3
:10037600EDFB2289828A83ECFAE0A3C8C582C8CC49
:10038600C583CCF0A3C8C582C8CCC583CCDFEADE62
:10039600E880DB89828A83E493A3F208DFF980CCC4
:1003A60088F0EF60010E4E60C388F0ED2402B404BD
:1003B6000050B9F582EB2402B4040050AF23234564
:0603C60082239003267360
:1003CC00BB010689828A83E0225002E722BBFE022F
:0903DC00E32289828A83E4932262
:1003E500F8BB010DE58229F582E5833AF583E8F04E
:1003F500225006E92582C8F622BBFE05E92582C8FA
:02040500F222E1
:10040700BC000BBE0029EF8DF084FFADF022E4CCD9
:10041700F875F008EF2FFFEE33FEEC33FCEE9DECA2
:10042700984005FCEE9DFE0FD5F0E9E4CEFD22EDE8
:10043700F8F5F0EE8420D21CFEADF075F008EF2F32
:10044700FFED33FD4007985006D5F0F222C398FD23
:050457000FD5F0EA22C0
:10046800020003E493A3F8E493A34003F68001F2A7
:1004780008DFF48029E493A3F85407240CC8C33395
:10048800C4540F4420C8834004F456800146F6DF64
:10049800E4800B01020408102040809004E8E47E08
:1004A800019360BCA3FF543F30E509541FFEE49359
:1004B800A360010ECF54C025E060A840B8E493A320
:1004C800FAE493A3F8E493A3C8C582C8CAC583CA4B
:1004D800F0A3C8C582C8CAC583CADFE9DEE780BE03
:01052E0000CC
:00000001FF
