:1004B10041736B20537461727453747564656E7407
:1004C100204E6F2E58582041736B41736B20466943
:1004D1006E6973685175697A2053746172745175CC
:0904E100697A2046696E697368AE
:1003EA009428000000000000000000000000000047
:1003FA00000000000000941400000000000000004B
:10040A000000000000000000000000008A0AC0CFBF
:10041A00A4B0999282F88090850534431010018522
:06042A0000344310100134
:1005E200E4FDFCC3ED9FEC9E50070DBD00010C80A5
:1005F200F2E4FCFDC3ED9FEC9E50070DBD00010C23
:0206020080F284
:0106040022D3
:0B066900EFD394004004001F80F62235
:100431007F64120669C291D2B2C2927BFE7A0079C0
:100441000578867405F27F3012047F7A00790012F4
:1004510004767D017F211206237D017F221206236E
:10046100E4FD7F251206237D147F311206237D07CB
:050471007F26020623B6
:0A05BE00EBF208EAF208E9F2C2B21B
:1005C800E4FEEF339294EF25E0FFD292A293E43356
:0905D8004FFFC2920EEEB408E9D7
:0105E10022F7
:0C064400C2B21205C8E4FF1205C8D2B211
:010650002287
:10062300C2B21205C8AC07AF051205C8D2B2AF04F7
:0106330022A4
:02058C00788372
:10058E001205BEAD07E4FC7886E2FFECC39F501B5C
:10059E00E4FF1205C87883E2FB08E2FA08E2F98C60
:0F05AE0082758300EF12033C0C80DCD2B2AF05E4
:0105BD00221B
:090476007BFE78867405F27F2AF2
:02047F00788380
:100481001205BEAD07E4FC7886E2FFECC39F501B6A
:100491007883E2FB0808E2F92401F218E2FA340059
:0F04A100F2120323FF1205C80C80DCD2B2AF05A4
:0104B0002229
:10063400C2917D0F7F20120623D2917F8202066928
:0A04EA00787FEBF208EAF208E9F26D
:1004F400E4FB7F071206448F20300618C291787FF0
:10050400E2FB08E2FA08E2F978867414F27F6112D9
:0D051400058C7B01AD207F27120623AF036D
:0105210022B7
:10052200787FEBF208EAF208E9F2C2917A007905E3
:10053200120476787FE2FB08E2FA08E2F978867420
:1005420014F27FA012047F7D0E7F20120623D29127
:050552007F0A020669AA
:10055700C2A58C807F0112057AD2A77F0512057A82
:10056700C2A7AF04EFC454F0F5807F0112057AD219
:03057700A77F0556
:10057A00EFD39400400B7EC77D01DDFEDEFA1F80BB
:01058A00EF81
:01058B00224D
:0C065100AC07C2A7C2A6120557C2A72220
:0C065D00AC07C2A7D2A6120557C2A72204
:100605007F321206517F281206517F0C1206517F48
:0E061500061206517F011206517F8002065127
:10000300E47844F278467C007DFE7BFF7A0479B184
:10001300FE7F091202FD784F7C007DFE7BFF7A0490
:1000230079BA7E007F111202FD78607C007DFE7B31
:10003300FF7A0479CB7E007F0A1202FD786A7C0086
:100043007DFE7BFF7A0479D57E007F0A1202FD785C
:10005300747C007DFE7BFF7A0479DF7E007F0B12C8
:1000630002FDE47840F208F2783EF208F2783CF2BE
:1000730008F2120431C2A3C2A2C2A1C2A07580BFFA
:1000830020B61B783DE2700218E26012E4783CF27D
:1000930008F27580BF78297402F2784414F220B70D
:1000A30047783FE2700218E2703E783DE270021832
:1000B300E27035783EF20804F2E47842F208F2780E
:1000C30042E2FE08E2FFC39401EE64809480501381
:1000D30074452FF8E4F27843E22401F218E2340085
:1000E300F280DC780CE2F580783FE2700218E2607F
:1000F3000A78297403F278447401F27841E27002B9
:1001030018E2600A78297404F278447401F278449E
:10011300E2B401177BFE7A007928120522E47829DC
:10012300F27844F27FE87E031205E21206347BFE86
:100133007A0079141204EA7815E2FF7003020213BD
:10014300C394104017EFD3943F5011783CE4F20866
:1001530004F274FA2FF8E2F58002020C783FE270A1
:100163000218E2700302020C7840E4F20804F27809
:1001730015E2FFC39440400FEFD3946F500974040A
:100183002FF87461F280407815E2FFC39470400F3A
:10019300EFD3949F500974D42FF87462F28028EF40
:1001A300C394A0400FEFD394CF500974A42FF874D5
:1001B30063F28013EFC394D0400DEFD394FF500745
:1001C30074742FF87464F2E47842F208F27842E22D
:1001D300FE08E2FFC39401EE6480948050197445D5
:1001E3002FF8E270057840F208F27843E22401F236
:1001F30018E23400F280D67841E2700218E2600916
:10020300E4783EF208F27580BF7FE87E031205E2D0
:100213007841E2700218E2600A7815E270057840CE
:0A022300F208F2E47815F2020083FD
:0300000002035E9A
:0C035E00787FE4F6D8FD7581200203A52D
:10022D00E709F608DFFA8046E709F208DFFA803EB3
:10023D0088828C83E709F0A3DFFA8032E309F608A0
:10024D00DFFA8078E309F208DFFA807088828C8308
:10025D00E309F0A3DFFA806489828A83E0A3F608BC
:10026D00DFFA805889828A83E0A3F208DFFA804C96
:10027D0080D280FA80C680D4806980F2803380106D
:10028D0080A680EA809A80A880DA80E280CA8033D6
:10029D0089828A83ECFAE493A3C8C582C8CCC5834E
:1002AD00CCF0A3C8C582C8CCC583CCDFE9DEE7801E
:1002BD000D89828A83E493A3F608DFF9ECFAA9F09D
:1002CD00EDFB2289828A83ECFAE0A3C8C582C8CCF3
:1002DD00C583CCF0A3C8C582C8CCC583CCDFEADE0C
:1002ED00E880DB89828A83E493A3F208DFF980CC6E
:1002FD0088F0EF60010E4E60C388F0ED2402B40467
:10030D000050B9F582EB2402B4040050AF2323450D
:06031D00822390027D73B3
:10032300BB010689828A83E0225002E722BBFE02D8
:09033300E32289828A83E493220B
:10033C00F8BB010DE58229F582E5833AF583E8F0F7
:10034C00225006E92582C8F622BBFE05E92582C8A3
:02035C00F2228B
:10036A00020003E493A3F8E493A34003F68001F2A6
:10037A0008DFF48029E493A3F85407240CC8C33394
:10038A00C4540F4420C8834004F456800146F6DF63
:10039A00E4800B01020408102040809003EAE47E06
:1003AA00019360BCA3FF543F30E509541FFEE49358
:1003BA00A360010ECF54C025E060A840B8E493A31F
:1003CA00FAE493A3F8E493A3C8C582C8CAC583CA4A
:1003DA00F0A3C8C582C8CAC583CADFE9DEE780BE02
:0104300000CB
:00000001FF
