:10012F001449000000000000000000000000000063
:10013F000000000000001435000000000000000067
:10014F000000000000000000000000000A2BC0CFDC
:10015F00A4B0999282F880900526344310100105BF
:06016F00213443101001D1
:1002B700E4FDFCC3ED9FEC9E50070DBD00010C80D3
:1002C700F2E4FCFDC3ED9FEC9E50070DBD00010C51
:0202D70080F2B3
:0102D9002202
:0B032100EFD394004004001F80F62280
:100176007F64120321C291D2B2C2927B007A0079C7
:10018600267514057F301201FB7A0079211201F4DD
:100196007D017F211202F37D017F221202F3E4FD2D
:1001A6007F251202F37D147F311202F37D077F262D
:0301B6000202F34F
:1002DA00E4FEEF339294EF25E0FFD292A293E43347
:0802EA004207C2920EBE08EAB1
:0102F20022E9
:0C031400C2B21202DAE4FF1202DAD2B226
:0103200022BA
:1002F300C2B21202DAAC07AF051202DAD2B2AF040D
:0103030022D7
:06022D008B118A128913F7
:10023300C2B21202DAAD07E4FCECC395145017E422
:10024300FF1202DAAB11AA12A9138C82758300EF95
:0A0253001201D20C80E3D2B2AF0515
:01025D00227E
:0701F4007B007514057F2A52
:0601FB008B118A1289132A
:10020100C2B21202DAAD07E4FCECC395145018AB8C
:10021100110513E513AA127002051214F91201B99E
:0B022100FF1202DA0C80E2D2B2AF053F
:01022C0022AF
:10030400C2917D0F7F201202F3D2917F82020321DA
:06025E008B0D8A0E890FD2
:10026400E4FB7F071203148F20300612C291AB0DFA
:10027400AA0EA90F7514147F6112022D7B01AD2003
:070284007F271202F3AF0314
:01028B002250
:10028C008B0D8A0E890FC2917A0079261201F4AB7C
:10029C000DAA0EA90F7514147FA01201FB7D0E7F01
:0B02AC00201202F3D2917F0A0203210E
:10000300E4F50CF50AF50BF508F509120176C2A320
:10001300C2A2C2A1C2A07580BF20B60F754A1175D6
:100023000800750901852C80750C01E50B450A60F4
:100033001220B706754A41750C0120B506754A7141
:10004300750C01E50CB401157B007A0079491202A5
:100053008CE4F54AF50C7FE87E031202B712030421
:100063007B007A00793512025EE536602DB4020812
:10007300E4F508F5097580BFE536B40309750A0090
:10008300750B01852D80E536B40408E4F50AF50BFC
:100093007580BF7FE87E031202B7E4F53602001CC9
:030000000200A358
:0C00A300787FE4F6D8FD75815C0200EA6D
:1001B900BB010689828A83E0225002E722BBFE0244
:0901C900E32289828A83E4932277
:1001D200F8BB010DE58229F582E5833AF583E8F063
:1001E200225006E92582C8F622BBFE05E92582C80F
:0201F200F222F7
:1000AF00020003E493A3F8E493A34003F68001F264
:1000BF0008DFF48029E493A3F85407240CC8C33352
:1000CF00C4540F4420C8834004F456800146F6DF21
:1000DF00E4800B010204081020408090012FE47E81
:1000EF00019360BCA3FF543F30E509541FFEE49316
:1000FF00A360010ECF54C025E060A840B8E493A3DD
:10010F00FAE493A3F8E493A3C8C582C8CAC583CA07
:10011F00F0A3C8C582C8CAC583CADFE9DEE780BEBF
:010175000089
:00000001FF
