:10013700144900000000000000000000000000005B
:10014700000000000000143500000000000000005F
:100157000000000000000000000000000A2BC0CFD4
:10016700A4B0999282F880900526344310100105B7
:06017700213443101001C9
:1002BF00E4FDFCC3ED9FEC9E50070DBD00010C80CB
:1002CF00F2E4FCFDC3ED9FEC9E50070DBD00010C49
:0202DF0080F2AB
:0102E10022FA
:0B032900EFD394004004001F80F62278
:10017E007F64120329C291D2B2C2927B007A0079B7
:10018E00267514057F301202037A0079211201FCC4
:10019E007D017F211202FB7D017F221202FBE4FD15
:1001AE007F251202FB7D147F311202FB7D077F2615
:0301BE000202FB3F
:1002E200E4FEEF339294EF25E0FFD292A293E4333F
:0802F2004207C2920EBE08EAA9
:0102FA0022E1
:0C031C00C2B21202E2E4FF1202E2D2B20E
:0103280022B2
:1002FB00C2B21202E2AC07AF051202E2D2B2AF04F5
:01030B0022CF
:060235008B118A128913EF
:10023B00C2B21202E2AD07E4FCECC395145017E412
:10024B00FF1202E2AB11AA12A9138C82758300EF85
:0A025B001201DA0C80E3D2B2AF0505
:010265002276
:0701FC007B007514057F2A4A
:060203008B118A12891321
:10020900C2B21202E2AD07E4FCECC395145018AB7C
:10021900110513E513AA127002051214F91201C18E
:0B022900FF1202E20C80E2D2B2AF052F
:0102340022A7
:10030C00C2917D0F7F201202FBD2917F82020329C2
:060266008B0D8A0E890FCA
:10026C00E4FB7F0712031C8F20300612C291AB0DEA
:10027C00AA0EA90F7514147F611202357B01AD20F3
:07028C007F271202FBAF0304
:010293002248
:100294008B0D8A0E890FC2917A0079261201FCAB6C
:1002A4000DAA0EA90F7514147FA01202037D0E7FF0
:0B02B400201202FBD2917F0A020329F6
:10000300E4F50CF50AF50BF508F50912017EC2A318
:10001300C2A2C2A1C2A07580BF20B614E5094508DB
:10002300700E754A10F508750901852C80750C0151
:10003300E50B450A602220B70E754A40750C01E4B2
:10004300F50AF50B7580BF20B50E754A70750C0166
:10005300E4F50AF50B7580BFE50CB401157B007A56
:10006300007949120294E4F54AF50C7FE87E031205
:1000730002BF12030C7B007A007935120266E53663
:100083006020B40208E4F508F5097580BFE536B4CD
:100093000309750A00750B01852D807FE87E031225
:0800A30002BFE4F53602001C67
:030000000200AB50
:0C00AB00787FE4F6D8FD75815C0200F25D
:1001C100BB010689828A83E0225002E722BBFE023C
:0901D100E32289828A83E493226F
:1001DA00F8BB010DE58229F582E5833AF583E8F05B
:1001EA00225006E92582C8F622BBFE05E92582C807
:0201FA00F222EF
:1000B700020003E493A3F8E493A34003F68001F25C
:1000C70008DFF48029E493A3F85407240CC8C3334A
:1000D700C4540F4420C8834004F456800146F6DF19
:1000E700E4800B0102040810204080900137E47E71
:1000F700019360BCA3FF543F30E509541FFEE4930E
:10010700A360010ECF54C025E060A840B8E493A3D4
:10011700FAE493A3F8E493A3C8C582C8CAC583CAFF
:10012700F0A3C8C582C8CAC583CADFE9DEE780BEB7
:01017D000081
:00000001FF
