:1006C70041736B20537461727453747564656E74EF
:1006D700204E6F2E58582041736B41736B2046692B
:1006E7006E6973685175697A2053746172745175B4
:1006F700697A2046696E697368413A20202520424D
:100707003A20202520433A20202520443A2020253E
:100717009428000000000000000000000000000016
:10072700000000000000941400000000000000001A
:100737000000000000000000000000008A0AC0CF8F
:10074700A4B0999282F880908505344310100185F2
:0607570000344310100104
:1008D600E4FDFCC3ED9FEC9E50070DBD00010C80AE
:1008E600F2E4FCFDC3ED9FEC9E50070DBD00010C2C
:0208F60080F28E
:0108F80022DD
:0B096E00EFD394004004001F80F6222D
:10075E007F6412096EC291D2B2C2927BFE7A007988
:10076E000578A57405F27F301207AC7A0079001275
:10077E0007A37D017F211209407D017F22120940CE
:10078E00E4FD7F251209407D147F311209407D075B
:05079E007F2602094066
:0A08B200EBF208EAF208E9F2C2B224
:1008BC00E4FEEF339294EF25E0FFD292A293E4335F
:0908CC004FFFC2920EEEB408E9E0
:0108D5002200
:0C096100C2B21208BCE4FF1208BCD2B203
:01096D002267
:10094000C2B21208BCAC07AF051208BCD2B2AF04E9
:010950002284
:0208800078A25C
:100882001208B2AD07E4FC78A5E2FFECC39F501B4F
:10089200E4FF1208BC78A2E2FB08E2FA08E2F98C53
:0F08A20082758300EF12057C0C80DCD2B2AF05AB
:0108B1002224
:0907A3007BFE78A57405F27F2AA3
:0207AC0078A231
:1007AE001208B2AD07E4FC78A5E2FFECC39F501B24
:1007BE0078A2E2FB0808E2F92401F218E2FA34000A
:0F07CE00F2120563FF1208BC0C80DCD2B2AF053B
:0107DD0022F9
:10095100C2917D0F7F20120940D2917F8202096EE0
:0A07DE00789EEBF208EAF208E9F257
:1007E800E4FB7F071209618F20300618C291789EBA
:1007F800E2FB08E2FA08E2F978A57414F27F6112C4
:0D08080008807B01AD207F27120940AF035F
:0108150022C0
:10081600789EEBF208EAF208E9F2C2917A007905CD
:100826001207A3789EE2FB08E2FA08E2F978A574BB
:1008360014F27FA01207AC7D0E7F20120940D291E0
:050846007F0A02096EAB
:10084B00C2A58C807F0112086ED2A77F0512086E9D
:10085B00C2A7AF04EFC454F0F5807F0112086ED22B
:03086B00A77F055F
:10086E00EFD39400400B7EC77D01DDFEDEFA1F80C4
:01087E00EF8A
:01087F002256
:0B091700E4F208F27F011209227F8049
:0C092200AC07C2A7C2A612084BC2A72255
:06092E0074682FF8E2FFDF
:0C093400AC07C2A7D2A612084BC2A72233
:1008F9007F321209227F281209227F0C1209227FD6
:0E090900061209227F011209227F80020922B4
:10000300E4784CF2784E7C007DFE7BFF7A0679C75C
:10001300FE7F0912053D78577C007DFE7BFF7A0643
:1000230079D07E007F1112053D78687C007DFE7BD0
:10003300FF7A0679E17E007F0A12053D78727C0023
:100043007DFE7BFF7A0679EB7E007F0A12053D7801
:100053007C7C007DFE7BFF7A0679F57E007F221291
:10006300053DE47840F208F2783EF208F2783CF27B
:1000730008F212075E7F321209227F281209227FBB
:100083000C1209227F0612092220B66C783DE27019
:100093000218E26063783C120917E47842F208F22E
:1000A3007842E2FE08E2FFC39404EE648094805039
:1000B3001012092E7843E22401F218E23400F28090
:1000C300DF7FC01209227842E4F2087404F2784216
:1000D300E2FE08E2FFC3940AEE648094805010129B
:1000E300092E7843E22401F218E23400F280DF782B
:1000F300297402F2784C14F230B7030201C1783F3D
:10010300E2700218E260030201C1783DE270021856
:10011300E260030201C1783EF20804F2E47842F29D
:1001230008F27842E2FE08E2FFC39401EE64809491
:10013300805013744D2FF8E4F27843E22401F2184F
:10014300E23400F280DCE4784AF208F27848F208FC
:10015300F27846F208F27844120918E47842F20879
:10016300F27842E2FE08E2FFC39405EE64809480D5
:10017300501274721209307843E22401F218E23407
:1001830000F280DD7FC01209227842E4F208740590
:10019300F27842E2FE08E2FFC3940AEE64809480A0
:1001A300501274721209307843E22401F218E234D7
:1001B30000F280DD78297403F2784C7401F2784CF4
:1001C300E2B401177BFE7A007928120816E4782935
:1001D300F2784CF27FE87E031208D61209517BFEB7
:1001E3007A0079141207DE7815E2FF7003020466C1
:1001F300C39410500302028FEFD3943F40030202D3
:100203008F783CE4F20804F2EF24F1FBE434FFFAC4
:100213007C007D0AAF03FE1205B0EF24307862F252
:100223007C007D0AAF03AE021205B0ED2430786383
:1002330012091A7842E4F208740EF27842E2FE08D8
:10024300E2FFC39411EE6480948050127457120934
:10025300307843E22401F218E23400F280DD7FC0FB
:10026300120922E47842F208F27842E2FE08E2FF41
:10027300C3940EEE64809480501274571209307840
:1002830043E22401F218E23400F280DD783FE270A9
:100293000218E2700302045F7840E4F20804F27883
:1002A30015E2FFC394404018EFD3946F5012740DBE
:1002B3002FF87461F27845E22401F218E23400F277
:1002C300EFC394704018EFD3949F501274DD2FF84E
:1002D3007462F27847E22401F218E23400F2EFC3C9
:1002E30094A04018EFD394CF501274AC2FF87463DA
:1002F300F27849E22401F218E23400F2EFC394D019
:100303004018EFD394FF5012747C2FF87464F27882
:100313004BE22401F218E23400F2E47842F208F2EC
:100323007842E2FE08E2FFC39401EE6480948050B9
:1003330019744D2FF8E270057840F208F27843E221
:100343002401F218E23400F280D67841E2700218F8
:10035300E2700302045F783E120917E47842F20860
:10036300F27842E2FE08E2FFC3940BEE64809480CD
:100373005012747C1209307843E22401F218E234FB
:1003830000F280DD7FC01209227844E2FE08E2FF1A
:100393007C007D6412059EAA06AB077D0A12060542
:1003A3007889EFF27C007D0AAF03AE02120605786E
:1003B3008AEDF27846E2FE08E2FF7C007D641205D6
:1003C3009EAA06AB077D0A120605788FEFF27C0022
:1003D3007D0AAF03AE021206057890EDF27848E28B
:1003E300FE08E2FF7C007D6412059EAA06AB077D32
:1003F3000A1206057895EFF27C007D0AAF03AE0280
:100403001206057896EDF2784AE2FE08E2FF7C00D8
:100413007D6412059EAA06AB077D0A120605789B2A
:10042300EFF27C007D0AAF03AE02120605789CED65
:10043300F27842E4F208740BF27842E2FE08E2FF3B
:10044300C39422EE648094805012747C1209307835
:1004530043E22401F218E23400F280DD7FE87E03F8
:0A0463001208D6E47815F202008CAE
:0300000002063BBA
:0C063B00787FE4F6D8FD7581200206826D
:10046D00E709F608DFFA8046E709F208DFFA803E71
:10047D0088828C83E709F0A3DFFA8032E309F6085E
:10048D00DFFA8078E309F208DFFA807088828C83C6
:10049D00E309F0A3DFFA806489828A83E0A3F6087A
:1004AD00DFFA805889828A83E0A3F208DFFA804C54
:1004BD0080D280FA80C680D4806980F2803380102B
:1004CD0080A680EA809A80A880DA80E280CA803394
:1004DD0089828A83ECFAE493A3C8C582C8CCC5830C
:1004ED00CCF0A3C8C582C8CCC583CCDFE9DEE780DC
:1004FD000D89828A83E493A3F608DFF9ECFAA9F05B
:10050D00EDFB2289828A83ECFAE0A3C8C582C8CCB0
:10051D00C583CCF0A3C8C582C8CCC583CCDFEADEC9
:10052D00E880DB89828A83E493A3F208DFF980CC2B
:10053D0088F0EF60010E4E60C388F0ED2402B40424
:10054D000050B9F582EB2402B4040050AF232345CB
:06055D0082239004BD732F
:10056300BB010689828A83E0225002E722BBFE0296
:09057300E32289828A83E49322C9
:10057C00F8BB010DE58229F582E5833AF583E8F0B5
:10058C00225006E92582C8F622BBFE05E92582C861
:02059C00F22249
:10059E00EF8DF0A4A8F0CF8CF0A428CE8DF0A42E71
:0205AE00FE222B
:1005B000BC000BBE0029EF8DF084FFADF022E4CC2F
:1005C000F875F008EF2FFFEE33FEEC33FCEE9DECF8
:1005D000984005FCEE9DFE0FD5F0E9E4CEFD22ED3E
:1005E000F8F5F0EE8420D21CFEADF075F008EF2F88
:1005F000FFED33FD4007985006D5F0F222C398FD79
:050600000FD5F0EA2215
:10060500C2D5EC30E709B2D5E4C39DFDE49CFCEE10
:1006150030E715B2D5E4C39FFFE49EFE1205B0C3D3
:10062500E49DFDE49CFC80031205B030D507C3E4CE
:060635009FFFE49EFE227F
:10064700020003E493A3F8E493A34003F68001F2C6
:1006570008DFF48029E493A3F85407240CC8C333B4
:10066700C4540F4420C8834004F456800146F6DF83
:10067700E4800B0102040810204080900717E47EF5
:10068700019360BCA3FF543F30E509541FFEE49378
:10069700A360010ECF54C025E060A840B8E493A33F
:1006A700FAE493A3F8E493A3C8C582C8CAC583CA6A
:1006B700F0A3C8C582C8CAC583CADFE9DEE780BE22
:01075D00009B
:00000001FF
