:10019A0014490000000000000000000000000000F8
:1001AA0000000000000014350000000000000000FC
:1001BA000000000000000000000000000A2BC0CF71
:1001CA00A4B0999282F88090052634431010010554
:0601DA0021344310100166
:10032200E4FDFCC3ED9FEC9E50070DBD00010C8067
:10033200F2E4FCFDC3ED9FEC9E50070DBD00010CE5
:0203420080F247
:010344002296
:0B038C00EFD394004004001F80F62215
:1001E1007F6412038CC291D2B2C2927B007A0079F1
:1001F10026751A057F301202667A00792112025F94
:100201007D017F2112035E7D017F2212035EE4FDE9
:100211007F2512035E7D147F3112035E7D077F26E9
:0302210002035E77
:10034500E4FEEF339294EF25E0FFD292A293E433DB
:080355004207C2920EBE08EA45
:01035D00227D
:0C037F00C2B2120345E4FF120345D2B2E3
:01038B00224F
:10035E00C2B2120345AC07AF05120345D2B2AF04C9
:01036E00226C
:060298008B178A1889197A
:10029E00C2B2120345AD07E4FCECC3951A5017E445
:1002AE00FF120345AB17AA18A9198C82758300EFAC
:0A02BE0012023D0C80E3D2B2AF053E
:0102C8002213
:07025F007B00751A057F2AE0
:060266008B178A188919AC
:10026C00C2B2120345AD07E4FCECC3951A5018ABAF
:10027C00170519E519AA187002051814F9120224A9
:0B028C00FF1203450C80E2D2B2AF0568
:010297002244
:10036F00C2917D0F7F2012035ED2917F8202038C98
:0602C9008B138A14891555
:1002CF00E4FB7F0712037F8F20300612C291AB131E
:1002DF00AA14A915751A147F611202987B01AD201B
:0702EF007F2712035EAF033D
:0102F60022E5
:1002F7008B138A148915C2917A00792612025FAB93
:1003070013AA14A915751A147FA01202667D0E7F11
:0B0317002012035ED2917F0A02038CCB
:10000300E4F510F50CF50DF50AF50BF508F50912F5
:1000130001E1C2A3C2A2C2A1C2A0E4F580754A0154
:10002300754B01FB7A0079491202F77F707E171234
:1000330003227580BF20B60EE50945086008E4F584
:1000430008F5097580BF20B730E50B450A702AF51E
:100053000A750B01F50EF50F7411250FF8E4F6057B
:100063000FE50F7002050E6402450E70EB852D80BF
:10007300754A02E4F54B751001E510B401197B00D4
:100083007A0079491202F7E4F54AF54BF54CF5107D
:100093007FE87E0312032212036F7B007A00793517
:1000A3001202C9E536605AB40110750800750901DA
:1000B300742B2537F8E6F5808040E50B450A603A56
:1000C300750C00750D0174102537F8A638E4F50E8C
:1000D300F50F7411250FF8E67004F50CF50D050FF7
:1000E300E50F7002050E6402450E70E6E50D450C42
:1000F3006008E4F50AF50B7580BF7FE87E03120301
:0B01030022E4F536F537F5380200382D
:0300000002010EEC
:0C010E00787FE4F6D8FD75815C02015595
:10022400BB010689828A83E0225002E722BBFE02D8
:09023400E32289828A83E493220B
:10023D00F8BB010DE58229F582E5833AF583E8F0F7
:10024D00225006E92582C8F622BBFE05E92582C8A3
:02025D00F2228B
:10011A00020003E493A3F8E493A34003F68001F2F8
:10012A0008DFF48029E493A3F85407240CC8C333E6
:10013A00C4540F4420C8834004F456800146F6DFB5
:10014A00E4800B010204081020408090019AE47EAA
:10015A00019360BCA3FF543F30E509541FFEE493AA
:10016A00A360010ECF54C025E060A840B8E493A371
:10017A00FAE493A3F8E493A3C8C582C8CAC583CA9C
:10018A00F0A3C8C582C8CAC583CADFE9DEE780BE54
:0101E000001E
:00000001FF
