:10064D0041736B20537461727453747564656E7469
:10065D00204E6F2E58582041736B41736B204669A5
:10066D006E6973685175697A20537461727451752E
:09067D00697A2046696E69736810
:1005860094280000000000000000000000000000A9
:1005960000000000000094140000000000000000AD
:1005A6000000000000000000000000008A0AC0CF22
:1005B600A4B0999282F88090850534431010018585
:0605C60000344310100197
:10077E00E4FDFCC3ED9FEC9E50070DBD00010C8007
:10078E00F2E4FCFDC3ED9FEC9E50070DBD00010C85
:02079E0080F2E7
:0107A0002236
:0B080300EFD394004004001F80F62299
:1005CD007F64120803C291D2B2C2927BFE7A007987
:1005DD000578867405F27F3012061B7A00790012B9
:1005ED0006127D017F211207D57D017F221207D5CD
:1005FD00E4FD7F251207D57D147F311207D57D07C8
:05060D007F260207D565
:0A075A00EBF208EAF208E9F2C2B27D
:10076400E4FEEF339294EF25E0FFD292A293E433B8
:090774004FFFC2920EEEB408E939
:01077D002259
:0C07F600C2B2120764E4FF120764D2B222
:0108020022D3
:1007D500C2B2120764AC07AF05120764D2B2AF0408
:0107E50022F1
:020728007883D4
:10072A0012075AAD07E4FC7886E2FFECC39F501B20
:10073A00E4FF1207647883E2FB08E2FA08E2F98C24
:0F074A0082758300EF1204830C80DCD2B2AF05FE
:01075900227D
:090612007BFE78867405F27F2A54
:02061B007883E2
:10061D0012075AAD07E4FC7886E2FFECC39F501B2E
:10062D007883E2FB0808E2F92401F218E2FA3400BB
:0F063D00F212046AFF1207640C80DCD2B2AF0520
:01064C00228B
:1007E600C2917D0F7F201207D5D2917F8202080326
:0A068600787FEBF208EAF208E9F2CF
:10069000E4FB7F071207F68F20300618C291787F9F
:1006A000E2FB08E2FA08E2F978867414F27F61123C
:0D06B00007287B01AD207F271207D5AF037F
:0106BD00221A
:1006BE00787FEBF208EAF208E9F2C2917A00790546
:1006CE00120612787FE2FB08E2FA08E2F9788674E5
:1006DE0014F27FA012061B7D0E7F201207D5D29139
:0506EE007F0A02080371
:1006F300C2A58C807F01120716D2A77F05120716A9
:10070300C2A7AF04EFC454F0F5807F01120716D2DD
:03071300A77F05B8
:10071600EFD39400400B7EC77D01DDFEDEFA1F801D
:01072600EFE3
:0107270022AF
:1007A1007F321207B77F281207B77F0C1207B77F76
:0607B100061207B77F01EC
:0C07B700AC07C2A7C2A61206F3C2A7221C
:0607C30074602FF8E2FF54
:0C07C900AC07C2A7D2A61206F3C2A722FA
:08080E001207A17F800207B769
:10000300E47844F278467C007DFE7BFF7A06794DE6
:10001300FE7F09120444784F7C007DFE7BFF7A0645
:1000230079567E007F1112044478607C007DFE7B4C
:10003300FF7A0679677E007F0A120444786A7C009F
:100043007DFE7BFF7A0679717E007F0A1204447875
:10005300747C007DFE7BFF7A06797B7E007F0B122A
:100063000444E47840F208F2783EF208F2783CF275
:1000730008F21207A17F801207B71205CDC2A3C2EF
:10008300A2C2A1C2A020B677783DE2700218E26056
:100093006EE4783CF208F27F011207B77F80120703
:1000A300B7E47842F208F27842E2FE08E2FFC39432
:1000B30003EE6480948050101207C37843E2240156
:1000C300F218E23400F280DF7FC01207B77842E40F
:1000D300F2087404F27842E2FE08E2FFC3940AEEE7
:1000E3006480948050101207C37843E22401F2180D
:1000F300E23400F280DF78297402F2784414F2309B
:10010300B7030201B3783FE2700218E26003020111
:10011300B3783DE2700218E260030201B3783EF265
:100123000804F2E47842F208F27842E2FE08E2FFC1
:10013300C39401EE64809480501374452FF8E4F265
:100143007843E22401F218E23400F280DC7F0112EA
:1001530007B77F801207B7E47842F208F27842E2E9
:10016300FE08E2FFC39404EE648094805012746A24
:100173001207C57843E22401F218E23400F280DD6D
:100183007FC01207B77842E4F2087405F27842E2BE
:10019300FE08E2FFC3940AEE648094805012746AEE
:1001A3001207C57843E22401F218E23400F280DD3D
:1001B300783FE2700218E2600A78297403F2784407
:1001C3007401F27841E2700218E2600F7829740436
:1001D300F2E47840F208F2784404F27844E2B4019D
:1001E300177BFE7A0079281206BEE47829F2784458
:1001F300F27FE87E0312077E1207E67BFE7A007920
:10020300141206867815E2FF700302036DC394107F
:1002130050030202B7EFD3943F40030202B7783C86
:10022300E4F20804F2EF24F0FBE434FFFA7C007DEF
:100233000AAF03FE1204A5EF2430785AF27C007D46
:100243000AAF03AE021204A5ED2430785BF27F01FE
:100253001207B77F801207B77842E4F208740EF2F0
:100263007842E2FE08E2FFC39411EE64809480506A
:1002730012744F1207C57843E22401F218E23400E6
:10028300F280DD7FC01207B7E47842F208F27842C9
:10029300E2FE08E2FFC3940DEE6480948040030203
:1002A3000366744F1207C57843E22401F218E2345F
:1002B30000F280DA783FE2700218E270030203660C
:1002C3007840E4F20804F27815E2FFC39440401446
:1002D300EFD3946F500E74042FF87461F27F011200
:1002E30007B780FE7815E2FFC39470400FEFD394F5
:1002F3009F500974D42FF87462F28028EFC394A03E
:10030300400FEFD394CF500974A42FF87463F28095
:1003130013EFC394D0400DEFD394FF500774742FA1
:10032300F87464F2E47842F208F27842E2FE08E2FA
:10033300FFC39401EE64809480501974452FF8E252
:1003430070057840F208F27843E22401F218E234AF
:1003530000F280D67841E2700218E26006E4783E4B
:10036300F208F27FE87E0312077EE47815F20200BA
:010373008801
:030000000204FAFD
:0C04FA00787FE4F6D8FD758120020541F2
:10037400E709F608DFFA8046E709F208DFFA803E6B
:1003840088828C83E709F0A3DFFA8032E309F60858
:10039400DFFA8078E309F208DFFA807088828C83C0
:1003A400E309F0A3DFFA806489828A83E0A3F60874
:1003B400DFFA805889828A83E0A3F208DFFA804C4E
:1003C40080D280FA80C680D4806980F28033801025
:1003D40080A680EA809A80A880DA80E280CA80338E
:1003E40089828A83ECFAE493A3C8C582C8CCC58306
:1003F400CCF0A3C8C582C8CCC583CCDFE9DEE780D6
:100404000D89828A83E493A3F608DFF9ECFAA9F054
:10041400EDFB2289828A83ECFAE0A3C8C582C8CCAA
:10042400C583CCF0A3C8C582C8CCC583CCDFEADEC3
:10043400E880DB89828A83E493A3F208DFF980CC25
:1004440088F0EF60010E4E60C388F0ED2402B4041E
:100454000050B9F582EB2402B4040050AF232345C5
:0604640082239003C47323
:10046A00BB010689828A83E0225002E722BBFE0290
:09047A00E32289828A83E49322C3
:10048300F8BB010DE58229F582E5833AF583E8F0AF
:10049300225006E92582C8F622BBFE05E92582C85B
:0204A300F22243
:1004A500BC000BBE0029EF8DF084FFADF022E4CC3B
:1004B500F875F008EF2FFFEE33FEEC33FCEE9DEC04
:1004C500984005FCEE9DFE0FD5F0E9E4CEFD22ED4A
:1004D500F8F5F0EE8420D21CFEADF075F008EF2F94
:1004E500FFED33FD4007985006D5F0F222C398FD85
:0504F5000FD5F0EA2222
:10050600020003E493A3F8E493A34003F68001F208
:1005160008DFF48029E493A3F85407240CC8C333F6
:10052600C4540F4420C8834004F456800146F6DFC5
:10053600E4800B0102040810204080900586E47ECA
:10054600019360BCA3FF543F30E509541FFEE493BA
:10055600A360010ECF54C025E060A840B8E493A381
:10056600FAE493A3F8E493A3C8C582C8CAC583CAAC
:10057600F0A3C8C582C8CAC583CADFE9DEE780BE64
:0105CC00002E
:00000001FF
