:1005E30041736B20537461727453747564656E74D4
:1005F300204E6F2E58582041736B41736B20466910
:100603006E6973685175697A205374617274517598
:09061300697A2046696E6973687A
:10051C009428000000000000000000000000000013
:10052C000000000000009414000000000000000017
:10053C000000000000000000000000008A0AC0CF8C
:10054C00A4B0999282F880908505344310100185EF
:06055C0000344310100101
:10071400E4FDFCC3ED9FEC9E50070DBD00010C8071
:10072400F2E4FCFDC3ED9FEC9E50070DBD00010CEF
:0207340080F251
:0107360022A0
:0B079900EFD394004004001F80F62204
:100563007F64120799C291D2B2C2927BFE7A00795C
:100573000578867405F27F301205B17A007900128E
:1005830005A87D017F2112076B7D017F2212076B76
:10059300E4FD7F2512076B7D147F3112076B7D0706
:0505A3007F2602076B3A
:0A06F000EBF208EAF208E9F2C2B2E8
:1006FA00E4FEEF339294EF25E0FFD292A293E43323
:09070A004FFFC2920EEEB408E9A3
:0107130022C3
:0C078C00C2B21206FAE4FF1206FAD2B262
:01079800223E
:10076B00C2B21206FAAC07AF051206FAD2B2AF0448
:01077B00225B
:0206BE0078833F
:1006C0001206F0AD07E4FC7886E2FFECC39F501BF6
:1006D000E4FF1206FA7883E2FB08E2FA08E2F98CFA
:0F06E00082758300EF1204190C80DCD2B2AF05D3
:0106EF0022E8
:0905A8007BFE78867405F27F2ABF
:0205B10078834D
:1005B3001206F0AD07E4FC7886E2FFECC39F501B04
:1005C3007883E2FB0808E2F92401F218E2FA340026
:0F05D300F2120400FF1206FA0C80DCD2B2AF0560
:0105E20022F6
:10077C00C2917D0F7F2012076BD2917F8202079965
:0A061C00787FEBF208EAF208E9F239
:10062600E4FB7F0712078C8F20300618C291787F73
:10063600E2FB08E2FA08E2F978867414F27F6112A6
:0D06460006BE7B01AD207F2712076BAF03BE
:010653002284
:10065400787FEBF208EAF208E9F2C2917A007905B0
:100664001205A8787FE2FB08E2FA08E2F9788674BA
:1006740014F27FA01205B17D0E7F2012076BD29178
:050684007F0A02079946
:10068900C2A58C807F011206ACD2A77F051206ACE9
:10069900C2A7AF04EFC454F0F5807F011206ACD2B3
:0306A900A77F0523
:1006AC00EFD39400400B7EC77D01DDFEDEFA1F8088
:0106BC00EF4E
:0106BD00221A
:100737007F3212074D7F2812074D7F0C12074D7F1E
:060747000612074D7F01C0
:0C074D00AC07C2A7C2A6120689C2A722F0
:0607590074602FF8E2FFBE
:0C075F00AC07C2A7D2A6120689C2A722CE
:0807A4001207377F8002074DA8
:10000300E47844F278467C007DFE7BFF7A0579E351
:10001300FE7F091203DA784F7C007DFE7BFF7A05B1
:1000230079EC7E007F111203DA78607C007DFE7B21
:10003300FF7A0579FD7E007F0A1203DA786A7C0075
:100043007DFE7BFF7A0679077E007F0A1203DA784A
:10005300747C007DFE7BFF7A0679117E007F0B1294
:1000630003DAE47840F208F2783EF208F2783CF2E0
:1000730008F21207377F8012074D120563C2A3C22D
:10008300A2C2A1C2A020B677783DE2700218E26056
:100093006EE4783CF208F27F0112074D7F8012076D
:1000A3004DE47842F208F27842E2FE08E2FFC3949C
:1000B30003EE6480948050101207597843E22401C0
:1000C300F218E23400F280DF7FC012074D7842E479
:1000D300F2087403F27842E2FE08E2FFC3940AEEE8
:1000E3006480948050101207597843E22401F21877
:1000F300E23400F280DF78297402F2784414F220AB
:10010300B742783FE2700218E27039783DE270023C
:1001130018E27030783EF20804F2E47842F208F212
:100123007842E2FE08E2FFC39401EE6480948050BB
:100133001374452FF8E4F27843E22401F218E23411
:1001430000F280DC783FE2700218E2600F780CE284
:10015300F58078297403F278447401F27841E270EF
:100163000218E2600F78297404F2E47840F208F28E
:10017300784404F27844E2B401177BFE7A007928CC
:10018300120654E47829F27844F27FE87E031207DA
:100193001412077C7BFE7A00791412061C7815E290
:1001A300FF7003020303C394105003020250EFD302
:1001B300943F4003020250783CE4F20804F2EF2437
:1001C300F0FBE434FFFA7C007D0AAF03FE12043B2C
:1001D300EF2430785AF27C007D0AAF03AE0212049A
:1001E3003BED2430785BF27F0112074D7F801207CD
:1001F3004D7842E4F208740EF27842E2FE08E2FF20
:10020300C39411EE648094805012744F12075B788C
:1002130043E22401F218E23400F280DD7FC01207CA
:100223004DE47842F208F27842E2FE08E2FFC3941A
:100233000DEE6480948040030202FC744F12075B4E
:100243007843E22401F218E23400F280DA783FE2E4
:10025300700218E270030202FC7840E4F20804F230
:100263007815E2FFC39440400FEFD3946F500974A5
:10027300042FF87461F280407815E2FFC394704054
:100283000FEFD3949F500974D42FF87462F280282F
:10029300EFC394A0400FEFD394CF500974A42FF869
:1002A3007463F28013EFC394D0400DEFD394FF50E7
:1002B3000774742FF87464F2E47842F208F2784217
:1002C300E2FE08E2FFC39401EE6480948050197447
:1002D300452FF8E270057840F208F27843E22401F2
:1002E300F218E23400F280D67841E2700218E2603C
:1002F30008E4783EF208F2F5807FE87E03120714E3
:07030300E47815F202008806
:0300000002049067
:0C049000787FE4F6D8FD7581200204D7C7
:10030A00E709F608DFFA8046E709F208DFFA803ED5
:10031A0088828C83E709F0A3DFFA8032E309F608C2
:10032A00DFFA8078E309F208DFFA807088828C832A
:10033A00E309F0A3DFFA806489828A83E0A3F608DE
:10034A00DFFA805889828A83E0A3F208DFFA804CB8
:10035A0080D280FA80C680D4806980F2803380108F
:10036A0080A680EA809A80A880DA80E280CA8033F8
:10037A0089828A83ECFAE493A3C8C582C8CCC58370
:10038A00CCF0A3C8C582C8CCC583CCDFE9DEE78040
:10039A000D89828A83E493A3F608DFF9ECFAA9F0BF
:1003AA00EDFB2289828A83ECFAE0A3C8C582C8CC15
:1003BA00C583CCF0A3C8C582C8CCC583CCDFEADE2E
:1003CA00E880DB89828A83E493A3F208DFF980CC90
:1003DA0088F0EF60010E4E60C388F0ED2402B40489
:1003EA000050B9F582EB2402B4040050AF23234530
:0603FA00822390035A73F8
:10040000BB010689828A83E0225002E722BBFE02FA
:09041000E32289828A83E493222D
:10041900F8BB010DE58229F582E5833AF583E8F019
:10042900225006E92582C8F622BBFE05E92582C8C5
:02043900F222AD
:10043B00BC000BBE0029EF8DF084FFADF022E4CCA5
:10044B00F875F008EF2FFFEE33FEEC33FCEE9DEC6E
:10045B00984005FCEE9DFE0FD5F0E9E4CEFD22EDB4
:10046B00F8F5F0EE8420D21CFEADF075F008EF2FFE
:10047B00FFED33FD4007985006D5F0F222C398FDEF
:05048B000FD5F0EA228C
:10049C00020003E493A3F8E493A34003F68001F273
:1004AC0008DFF48029E493A3F85407240CC8C33361
:1004BC00C4540F4420C8834004F456800146F6DF30
:1004CC00E4800B010204081020408090051CE47E9F
:1004DC00019360BCA3FF543F30E509541FFEE49325
:1004EC00A360010ECF54C025E060A840B8E493A3EC
:1004FC00FAE493A3F8E493A3C8C582C8CAC583CA17
:10050C00F0A3C8C582C8CAC583CADFE9DEE780BECE
:010562000098
:00000001FF
