:10065D0041736B20537461727453747564656E7459
:10066D00204E6F2E58582041736B41736B20466995
:10067D006E6973685175697A20537461727451751E
:09068D00697A2046696E69736800
:100596009428000000000000000000000000000099
:1005A600000000000000941400000000000000009D
:1005B6000000000000000000000000008A0AC0CF12
:1005C600A4B0999282F88090850534431010018575
:0605D60000344310100187
:10078E00E4FDFCC3ED9FEC9E50070DBD00010C80F7
:10079E00F2E4FCFDC3ED9FEC9E50070DBD00010C75
:0207AE0080F2D7
:0107B0002226
:0B082600EFD394004004001F80F62276
:1005DD007F64120826C291D2B2C2927BFE7A007954
:1005ED000578867405F27F3012062B7A0079001299
:1005FD0006227D017F211207F87D017F221207F867
:10060D00E4FD7F251207F87D147F311207F87D0771
:05061D007F260207F832
:0A076A00EBF208EAF208E9F2C2B26D
:10077400E4FEEF339294EF25E0FFD292A293E433A8
:090784004FFFC2920EEEB408E929
:01078D002249
:0C081900C2B2120774E4FF120774D2B2DE
:0108250022B0
:1007F800C2B2120774AC07AF05120774D2B2AF04C5
:0108080022CD
:020738007883C4
:10073A0012076AAD07E4FC7886E2FFECC39F501B00
:10074A00E4FF1207747883E2FB08E2FA08E2F98C04
:0F075A0082758300EF1204930C80DCD2B2AF05DE
:01076900226D
:090622007BFE78867405F27F2A44
:02062B007883D2
:10062D0012076AAD07E4FC7886E2FFECC39F501B0E
:10063D007883E2FB0808E2F92401F218E2FA3400AB
:0F064D00F212047AFF1207740C80DCD2B2AF05F0
:01065C00227B
:10080900C2917D0F7F201207F8D2917F82020826BC
:0A069600787FEBF208EAF208E9F2BF
:1006A000E4FB7F071208198F20300618C291787F6B
:1006B000E2FB08E2FA08E2F978867414F27F61122C
:0D06C00007387B01AD207F271207F8AF033C
:0106CD00220A
:1006CE00787FEBF208EAF208E9F2C2917A00790536
:1006DE00120622787FE2FB08E2FA08E2F9788674C5
:1006EE0014F27FA012062B7D0E7F201207F8D291F6
:0506FE007F0A0208263E
:10070300C2A58C807F01120726D2A77F0512072678
:10071300C2A7AF04EFC454F0F5807F01120726D2BD
:03072300A77F05A8
:10072600EFD39400400B7EC77D01DDFEDEFA1F800D
:01073600EFD3
:01073700229F
:0B07CF00E4F208F27F011207DA7F80DD
:0C07DA00AC07C2A7C2A6120703C2A722E8
:0607E60074602FF8E2FF31
:0C07EC00AC07C2A7D2A6120703C2A722C6
:1007B1007F321207DA7F281207DA7F0C1207DA7FFD
:0E07C100061207DA7F011207DA7F800207DADC
:10000300E47844F278467C007DFE7BFF7A06795DD6
:10001300FE7F09120454784F7C007DFE7BFF7A0635
:1000230079667E007F1112045478607C007DFE7B2C
:10003300FF7A0679777E007F0A120454786A7C007F
:100043007DFE7BFF7A0679817E007F0A1204547855
:10005300747C007DFE7BFF7A06798B7E007F0B121A
:100063000454E47840F208F2783EF208F2783CF265
:1000730008F21205DD7F321207DA7F281207DA7FD2
:100083000C1207DA7F061207DA20B66C783DE270AD
:100093000218E26063783C1207CFE47842F208F278
:1000A3007842E2FE08E2FFC39404EE648094805039
:1000B300101207E67843E22401F218E23400F280DA
:1000C300DF7FC01207DA7842E4F2087404F2784260
:1000D300E2FE08E2FFC3940AEE648094805010129B
:1000E30007E67843E22401F218E23400F280DF7875
:1000F300297402F2784414F230B7030201AF783F57
:10010300E2700218E260030201AF783DE270021868
:10011300E260030201AF783EF20804F2E47842F2AF
:1001230008F27842E2FE08E2FFC39401EE64809491
:1001330080501374452FF8E4F27843E22401F21857
:10014300E23400F280DC1207D3E47842F208F2785A
:1001530042E2FE08E2FFC39405EE648094805012ED
:10016300746A1207E87843E22401F218E23400F2D9
:1001730080DD7FC01207DA7842E4F2087405F27872
:1001830042E2FE08E2FFC3940AEE648094805012B8
:10019300746A1207E87843E22401F218E23400F2A9
:1001A30080DD78297403F278447401F27844E2B470
:1001B30001177BFE7A0079281206CEE47829F278BB
:1001C30044F27FE87E0312078E1208097BFE7A0051
:1001D30079141206967815E2FF700302037DC39427
:1001E30010500302027DEFD3943F400302027D7857
:1001F3003CE4F20804F2EF24F1FBE434FFFA7C0060
:100203007D0AAF03FE1204B5EF2430785AF27C0066
:100213007D0AAF03AE021204B5ED2430785B1207FA
:10022300D27842E4F208740EF27842E2FE08E2FF6A
:10023300C39411EE648094805012744F1207E878CF
:1002430043E22401F218E23400F280DD7FC012079A
:10025300DAE47842F208F27842E2FE08E2FFC3945D
:100263000EEE648094805012744F1207E87843E2D4
:100273002401F218E23400F280DD783FE2700218C4
:10028300E270030203767840E4F20804F27815E2A0
:10029300FFC39440400DEFD3946F500774052FF8BC
:1002A3007461F2EFC39470400DEFD3949F500774C1
:1002B300D52FF87462F2EFC394A0400DEFD394CF1F
:1002C300500774A42FF87463F2EFC394D0400DEF7A
:1002D300D394FF500774742FF87464F2E47842F2F5
:1002E30008F27842E2FE08E2FFC39401EE648094D0
:1002F30080501974452FF8E270057840F208F278BF
:1003030043E22401F218E23400F280D67841E2702D
:100313000218E2605E783E1207CFE47842F208F2F8
:100323007842E2FE08E2FFC39405EE6480948050B5
:100333001274741207E87843E22401F218E23400DD
:10034300F280DD7FC01207DA7842E4F2087405F226
:100353007842E2FE08E2FFC3940BEE64809480507F
:100363001274741207E87843E22401F218E23400AD
:10037300F280DD7FE87E0312078EE47815F2020037
:010383008CED
:0300000002050AEC
:0C050A00787FE4F6D8FD758120020551D1
:10038400E709F608DFFA8046E709F208DFFA803E5B
:1003940088828C83E709F0A3DFFA8032E309F60848
:1003A400DFFA8078E309F208DFFA807088828C83B0
:1003B400E309F0A3DFFA806489828A83E0A3F60864
:1003C400DFFA805889828A83E0A3F208DFFA804C3E
:1003D40080D280FA80C680D4806980F28033801015
:1003E40080A680EA809A80A880DA80E280CA80337E
:1003F40089828A83ECFAE493A3C8C582C8CCC583F6
:10040400CCF0A3C8C582C8CCC583CCDFE9DEE780C5
:100414000D89828A83E493A3F608DFF9ECFAA9F044
:10042400EDFB2289828A83ECFAE0A3C8C582C8CC9A
:10043400C583CCF0A3C8C582C8CCC583CCDFEADEB3
:10044400E880DB89828A83E493A3F208DFF980CC15
:1004540088F0EF60010E4E60C388F0ED2402B4040E
:100464000050B9F582EB2402B4040050AF232345B5
:0604740082239003D47303
:10047A00BB010689828A83E0225002E722BBFE0280
:09048A00E32289828A83E49322B3
:10049300F8BB010DE58229F582E5833AF583E8F09F
:1004A300225006E92582C8F622BBFE05E92582C84B
:0204B300F22233
:1004B500BC000BBE0029EF8DF084FFADF022E4CC2B
:1004C500F875F008EF2FFFEE33FEEC33FCEE9DECF4
:1004D500984005FCEE9DFE0FD5F0E9E4CEFD22ED3A
:1004E500F8F5F0EE8420D21CFEADF075F008EF2F84
:1004F500FFED33FD4007985006D5F0F222C398FD75
:050505000FD5F0EA2211
:10051600020003E493A3F8E493A34003F68001F2F8
:1005260008DFF48029E493A3F85407240CC8C333E6
:10053600C4540F4420C8834004F456800146F6DFB5
:10054600E4800B0102040810204080900596E47EAA
:10055600019360BCA3FF543F30E509541FFEE493AA
:10056600A360010ECF54C025E060A840B8E493A371
:10057600FAE493A3F8E493A3C8C582C8CAC583CA9C
:10058600F0A3C8C582C8CAC583CADFE9DEE780BE54
:0105DC00001E
:00000001FF
