:1000EB0014490000000000000000000000000000A8
:1000FB0000000000000014350000000000000000AC
:10010B000000000000000000000000000A2BC0CF20
:10011B00A4B0999282F88090052634431010010503
:06012B0021344310100115
:10027300E4FDFCC3ED9FEC9E50070DBD00010C8017
:10028300F2E4FCFDC3ED9FEC9E50070DBD00010C95
:0202930080F2F7
:010295002246
:0B02DD00EFD394004004001F80F622C5
:100132007F641202DDC291D2B2C2927B007A007950
:10014200267514057F301201B77A0079211201B0A9
:100152007D017F211202AF7D017F221202AFE4FDF9
:100162007F251202AF7D147F311202AF7D077F26F9
:030172000202AFD7
:10029600E4FEEF339294EF25E0FFD292A293E4338B
:0802A6004207C2920EBE08EAF5
:0102AE00222D
:0C02D000C2B2120296E4FF120296D2B2F3
:0102DC0022FF
:1002AF00C2B2120296AC07AF05120296D2B2AF04D9
:0102BF00221C
:0601E9008B118A1289133C
:1001EF00C2B2120296AD07E4FCECC395145017E4AB
:1001FF00FF120296AB11AA12A9138C82758300EF1E
:0A020F0012018E0C80E3D2B2AF059D
:0102190022C2
:0701B0007B007514057F2A96
:0601B7008B118A1289136E
:1001BD00C2B2120296AD07E4FCECC395145018AB15
:1001CD00110513E513AA127002051214F912017527
:0B01DD00FF1202960C80E2D2B2AF05C8
:0101E80022F4
:1002C000C2917D0F7F201202AFD2917F820202DDA8
:06021A008B0D8A0E890F16
:10022000E4FB7F071202D08F20300612C291AB0D83
:10023000AA0EA90F7514147F611201E97B01AD208C
:070240007F271202AFAF039C
:010247002294
:100248008B0D8A0E890FC2917A0079261201B0AB04
:100258000DAA0EA90F7514147FA01201B77D0E7F89
:0B026800201202AFD2917F0A0202DDDB
:10008F00E4F50CF50AF50BF508F509120132C2A3D8
:10009F00C2A2C2A1C2A07580BF20B709754A42751E
:1000AF000C017580BF20B509754A72750C017580FA
:1000BF00BFE50CB401157B007A007949120248E4C0
:1000CF00F54AF50C7FE87E031202731202C07B0023
:0C00DF007A00793512021AE4F53680BD73
:03000000020003F8
:0C000300787FE4F6D8FD75815C02004AAD
:10017500BB010689828A83E0225002E722BBFE0288
:09018500E32289828A83E49322BB
:10018E00F8BB010DE58229F582E5833AF583E8F0A7
:10019E00225006E92582C8F622BBFE05E92582C853
:0201AE00F2223B
:10000F0002008FE493A3F8E493A34003F68001F278
:10001F0008DFF48029E493A3F85407240CC8C333F2
:10002F00C4540F4420C8834004F456800146F6DFC1
:10003F00E4800B01020408102040809000EBE47E66
:10004F00019360BCA3FF543F30E509541FFEE493B6
:10005F00A360010ECF54C025E060A840B8E493A37D
:10006F00FAE493A3F8E493A3C8C582C8CAC583CAA8
:10007F00F0A3C8C582C8CAC583CADFE9DEE780BE60
:0101310000CD
:00000001FF
