:100132001449000000000000000000000000000060
:100142000000000000001435000000000000000064
:100152000000000000000000000000000A2BC0CFD9
:10016200A4B0999282F880900526344310100105BC
:06017200213443101001CE
:1002BA00E4FDFCC3ED9FEC9E50070DBD00010C80D0
:1002CA00F2E4FCFDC3ED9FEC9E50070DBD00010C4E
:0202DA0080F2B0
:0102DC0022FF
:0B032400EFD394004004001F80F6227D
:100179007F64120324C291D2B2C2927B007A0079C1
:10018900267514057F301201FE7A0079211201F7D4
:100199007D017F211202F67D017F221202F6E4FD24
:1001A9007F251202F67D147F311202F67D077F2624
:0301B9000202F649
:1002DD00E4FEEF339294EF25E0FFD292A293E43344
:0802ED004207C2920EBE08EAAE
:0102F50022E6
:0C031700C2B21202DDE4FF1202DDD2B21D
:0103230022B7
:1002F600C2B21202DDAC07AF051202DDD2B2AF0404
:0103060022D4
:060230008B118A128913F4
:10023600C2B21202DDAD07E4FCECC395145017E41C
:10024600FF1202DDAB11AA12A9138C82758300EF8F
:0A0256001201D50C80E3D2B2AF050F
:01026000227B
:0701F7007B007514057F2A4F
:0601FE008B118A12891327
:10020400C2B21202DDAD07E4FCECC395145018AB86
:10021400110513E513AA127002051214F91201BC98
:0B022400FF1202DD0C80E2D2B2AF0539
:01022F0022AC
:10030700C2917D0F7F201202F6D2917F82020324D1
:060261008B0D8A0E890FCF
:10026700E4FB7F071203178F20300612C291AB0DF4
:10027700AA0EA90F7514147F611202307B01AD20FD
:070287007F271202F6AF030E
:01028E00224D
:10028F008B0D8A0E890FC2917A0079261201F7AB76
:10029F000DAA0EA90F7514147FA01201FE7D0E7FFB
:0B02AF00201202F6D2917F0A02032405
:10000300E4F50CF50AF50BF508F509120179C2A31D
:10001300C2A2C2A1C2A07580BF20B60F754A1075D7
:100023000800750901852C80750C01E50B450A60F4
:100033002220B70E754A40750C01E4F50AF50B75DD
:1000430080BF20B50E754A70750C01E4F50AF50BF7
:100053007580BFE50CB401157B007A007949120263
:100063008FE4F54AF50C7FE87E031202BA12030708
:100073007B007A007935120261E5366020B402080C
:10008300E4F508F5097580BFE536B40309750A0080
:10009300750B01852D807FE87E031202BAE4F536E5
:0300A30002001C3C
:030000000200A655
:0C00A600787FE4F6D8FD75815C0200ED67
:1001BC00BB010689828A83E0225002E722BBFE0241
:0901CC00E32289828A83E4932274
:1001D500F8BB010DE58229F582E5833AF583E8F060
:1001E500225006E92582C8F622BBFE05E92582C80C
:0201F500F222F4
:1000B200020003E493A3F8E493A34003F68001F261
:1000C20008DFF48029E493A3F85407240CC8C3334F
:1000D200C4540F4420C8834004F456800146F6DF1E
:1000E200E4800B0102040810204080900132E47E7B
:1000F200019360BCA3FF543F30E509541FFEE49313
:10010200A360010ECF54C025E060A840B8E493A3D9
:10011200FAE493A3F8E493A3C8C582C8CAC583CA04
:10012200F0A3C8C582C8CAC583CADFE9DEE780BEBC
:010178000086
:00000001FF
